20181014-19:29:59.155 : 8=FIX.4.2|9=78|35=A|34=1|49=MJV_CLIENT1|52=20181014-19:29:59.097|56=SIMPLE|98=0|108=30|141=Y|10=074|
20181014-19:29:59.208 : 8=FIX.4.2|9=72|35=A|34=1|49=SIMPLE|52=20181014-19:29:59.203|56=MJV_CLIENT1|98=0|108=30|10=012|
20181014-19:30:29.230 : 8=FIX.4.2|9=60|35=0|34=2|49=SIMPLE|52=20181014-19:30:29.229|56=MJV_CLIENT1|10=221|
20181014-19:30:29.233 : 8=FIX.4.2|9=60|35=0|34=2|49=MJV_CLIENT1|52=20181014-19:30:29.233|56=SIMPLE|10=216|
20181014-19:30:59.245 : 8=FIX.4.2|9=60|35=0|34=3|49=SIMPLE|52=20181014-19:30:59.244|56=MJV_CLIENT1|10=222|
20181014-19:31:01.530 : 8=FIX.4.2|9=60|35=0|34=3|49=MJV_CLIENT1|52=20181014-19:31:01.530|56=SIMPLE|10=208|
20181014-19:31:29.541 : 8=FIX.4.2|9=60|35=0|34=4|49=SIMPLE|52=20181014-19:31:29.540|56=MJV_CLIENT1|10=220|
20181014-19:31:31.544 : 8=FIX.4.2|9=60|35=0|34=4|49=MJV_CLIENT1|52=20181014-19:31:31.543|56=SIMPLE|10=216|
20181014-19:31:59.558 : 8=FIX.4.2|9=60|35=0|34=5|49=SIMPLE|52=20181014-19:31:59.556|56=MJV_CLIENT1|10=231|
20181014-19:32:01.567 : 8=FIX.4.2|9=60|35=0|34=5|49=MJV_CLIENT1|52=20181014-19:32:01.566|56=SIMPLE|10=220|
20181014-19:32:29.579 : 8=FIX.4.2|9=60|35=0|34=6|49=SIMPLE|52=20181014-19:32:29.579|56=MJV_CLIENT1|10=235|
20181014-19:32:31.584 : 8=FIX.4.2|9=60|35=0|34=6|49=MJV_CLIENT1|52=20181014-19:32:31.584|56=SIMPLE|10=224|
20181014-19:32:59.594 : 8=FIX.4.2|9=60|35=0|34=7|49=SIMPLE|52=20181014-19:32:59.593|56=MJV_CLIENT1|10=235|
20181014-19:33:01.597 : 8=FIX.4.2|9=60|35=0|34=7|49=MJV_CLIENT1|52=20181014-19:33:01.595|56=SIMPLE|10=225|
20181014-19:33:29.608 : 8=FIX.4.2|9=60|35=0|34=8|49=SIMPLE|52=20181014-19:33:29.608|56=MJV_CLIENT1|10=231|
20181014-19:33:31.614 : 8=FIX.4.2|9=60|35=0|34=8|49=MJV_CLIENT1|52=20181014-19:33:31.614|56=SIMPLE|10=221|
20181014-19:33:59.622 : 8=FIX.4.2|9=60|35=0|34=9|49=SIMPLE|52=20181014-19:33:59.621|56=MJV_CLIENT1|10=230|
20181014-19:34:01.623 : 8=FIX.4.2|9=60|35=0|34=9|49=MJV_CLIENT1|52=20181014-19:34:01.622|56=SIMPLE|10=219|
20181014-19:34:29.632 : 8=FIX.4.2|9=61|35=0|34=10|49=SIMPLE|52=20181014-19:34:29.631|56=MJV_CLIENT1|10=014|
20181014-19:34:31.633 : 8=FIX.4.2|9=61|35=0|34=10|49=MJV_CLIENT1|52=20181014-19:34:31.633|56=SIMPLE|10=009|
20181014-19:34:59.644 : 8=FIX.4.2|9=61|35=0|34=11|49=SIMPLE|52=20181014-19:34:59.644|56=MJV_CLIENT1|10=022|
20181014-19:35:01.649 : 8=FIX.4.2|9=61|35=0|34=11|49=MJV_CLIENT1|52=20181014-19:35:01.649|56=SIMPLE|10=015|
20181014-19:35:29.659 : 8=FIX.4.2|9=61|35=0|34=12|49=SIMPLE|52=20181014-19:35:29.659|56=MJV_CLIENT1|10=027|
20181014-19:35:31.661 : 8=FIX.4.2|9=61|35=0|34=12|49=MJV_CLIENT1|52=20181014-19:35:31.660|56=SIMPLE|10=012|
20181014-19:35:59.671 : 8=FIX.4.2|9=61|35=0|34=13|49=SIMPLE|52=20181014-19:35:59.670|56=MJV_CLIENT1|10=024|
20181014-19:36:01.672 : 8=FIX.4.2|9=61|35=0|34=13|49=MJV_CLIENT1|52=20181014-19:36:01.672|56=SIMPLE|10=014|
20181014-19:36:29.682 : 8=FIX.4.2|9=61|35=0|34=14|49=SIMPLE|52=20181014-19:36:29.682|56=MJV_CLIENT1|10=026|
20181014-19:36:31.688 : 8=FIX.4.2|9=61|35=0|34=14|49=MJV_CLIENT1|52=20181014-19:36:31.687|56=SIMPLE|10=024|
20181014-19:36:59.698 : 8=FIX.4.2|9=61|35=0|34=15|49=SIMPLE|52=20181014-19:36:59.697|56=MJV_CLIENT1|10=036|
20181014-19:37:01.702 : 8=FIX.4.2|9=61|35=0|34=15|49=MJV_CLIENT1|52=20181014-19:37:01.702|56=SIMPLE|10=011|
20181014-19:37:29.714 : 8=FIX.4.2|9=61|35=0|34=16|49=SIMPLE|52=20181014-19:37:29.713|56=MJV_CLIENT1|10=024|
20181014-19:37:31.732 : 8=FIX.4.2|9=61|35=0|34=16|49=MJV_CLIENT1|52=20181014-19:37:31.732|56=SIMPLE|10=018|
20181014-19:37:59.741 : 8=FIX.4.2|9=61|35=0|34=17|49=SIMPLE|52=20181014-19:37:59.740|56=MJV_CLIENT1|10=028|
20181014-19:38:01.742 : 8=FIX.4.2|9=61|35=0|34=17|49=MJV_CLIENT1|52=20181014-19:38:01.741|56=SIMPLE|10=017|
20181014-19:38:29.752 : 8=FIX.4.2|9=61|35=0|34=18|49=SIMPLE|52=20181014-19:38:29.750|56=MJV_CLIENT1|10=028|
20181014-19:38:31.762 : 8=FIX.4.2|9=61|35=0|34=18|49=MJV_CLIENT1|52=20181014-19:38:31.761|56=SIMPLE|10=023|
20181014-19:38:59.773 : 8=FIX.4.2|9=61|35=0|34=19|49=SIMPLE|52=20181014-19:38:59.772|56=MJV_CLIENT1|10=036|
20181014-19:39:01.775 : 8=FIX.4.2|9=61|35=0|34=19|49=MJV_CLIENT1|52=20181014-19:39:01.774|56=SIMPLE|10=026|
20181014-19:39:29.785 : 8=FIX.4.2|9=61|35=0|34=20|49=SIMPLE|52=20181014-19:39:29.784|56=MJV_CLIENT1|10=029|
20181014-19:39:31.803 : 8=FIX.4.2|9=61|35=0|34=20|49=MJV_CLIENT1|52=20181014-19:39:31.790|56=SIMPLE|10=019|
20181014-19:39:59.814 : 8=FIX.4.2|9=61|35=0|34=21|49=SIMPLE|52=20181014-19:39:59.812|56=MJV_CLIENT1|10=025|
20181014-19:40:01.827 : 8=FIX.4.2|9=61|35=0|34=21|49=MJV_CLIENT1|52=20181014-19:40:01.826|56=SIMPLE|10=009|
20181014-19:40:29.837 : 8=FIX.4.2|9=61|35=0|34=22|49=SIMPLE|52=20181014-19:40:29.836|56=MJV_CLIENT1|10=021|
20181014-19:40:31.839 : 8=FIX.4.2|9=61|35=0|34=22|49=MJV_CLIENT1|52=20181014-19:40:31.838|56=SIMPLE|10=016|
20181014-19:40:59.850 : 8=FIX.4.2|9=61|35=0|34=23|49=SIMPLE|52=20181014-19:40:59.849|56=MJV_CLIENT1|10=029|
20181014-19:41:01.855 : 8=FIX.4.2|9=61|35=0|34=23|49=MJV_CLIENT1|52=20181014-19:41:01.855|56=SIMPLE|10=014|
20181014-19:41:29.865 : 8=FIX.4.2|9=61|35=0|34=24|49=SIMPLE|52=20181014-19:41:29.864|56=MJV_CLIENT1|10=025|
20181014-19:41:31.869 : 8=FIX.4.2|9=61|35=0|34=24|49=MJV_CLIENT1|52=20181014-19:41:31.868|56=SIMPLE|10=022|
20181014-19:41:59.878 : 8=FIX.4.2|9=61|35=0|34=25|49=SIMPLE|52=20181014-19:41:59.878|56=MJV_CLIENT1|10=034|
20181014-19:42:01.884 : 8=FIX.4.2|9=61|35=0|34=25|49=MJV_CLIENT1|52=20181014-19:42:01.883|56=SIMPLE|10=018|
20181014-19:42:29.894 : 8=FIX.4.2|9=61|35=0|34=26|49=SIMPLE|52=20181014-19:42:29.893|56=MJV_CLIENT1|10=030|
20181014-19:42:31.895 : 8=FIX.4.2|9=61|35=0|34=26|49=MJV_CLIENT1|52=20181014-19:42:31.895|56=SIMPLE|10=025|
20181014-19:42:59.905 : 8=FIX.4.2|9=61|35=0|34=27|49=SIMPLE|52=20181014-19:42:59.904|56=MJV_CLIENT1|10=027|
20181014-19:43:01.915 : 8=FIX.4.2|9=61|35=0|34=27|49=MJV_CLIENT1|52=20181014-19:43:01.914|56=SIMPLE|10=016|
20181014-19:43:21.393 : 8=FIX.4.2|9=61|35=5|34=28|49=MJV_CLIENT1|52=20181014-19:43:21.393|56=SIMPLE|10=025|
20181014-19:43:21.396 : 8=FIX.4.2|9=61|35=5|34=28|49=SIMPLE|52=20181014-19:43:21.395|56=MJV_CLIENT1|10=027|
20181014-21:21:11.367 : 8=FIX.4.2|9=78|35=A|34=1|49=MJV_CLIENT1|52=20181014-21:21:11.338|56=SIMPLE|98=0|108=30|141=Y|10=045|
20181014-21:21:11.373 : 8=FIX.4.2|9=72|35=A|34=1|49=SIMPLE|52=20181014-21:21:11.372|56=MJV_CLIENT1|98=0|108=30|10=248|
20181014-21:21:41.388 : 8=FIX.4.2|9=60|35=0|34=2|49=SIMPLE|52=20181014-21:21:41.386|56=MJV_CLIENT1|10=212|
20181014-21:21:41.398 : 8=FIX.4.2|9=60|35=0|34=2|49=MJV_CLIENT1|52=20181014-21:21:41.397|56=SIMPLE|10=214|
20181014-21:22:11.414 : 8=FIX.4.2|9=60|35=0|34=3|49=SIMPLE|52=20181014-21:22:11.413|56=MJV_CLIENT1|10=202|
20181014-21:22:11.417 : 8=FIX.4.2|9=60|35=0|34=3|49=MJV_CLIENT1|52=20181014-21:22:11.414|56=SIMPLE|10=203|
20181014-21:22:41.429 : 8=FIX.4.2|9=60|35=0|34=4|49=SIMPLE|52=20181014-21:22:41.428|56=MJV_CLIENT1|10=212|
20181014-21:22:41.433 : 8=FIX.4.2|9=60|35=0|34=4|49=MJV_CLIENT1|52=20181014-21:22:41.431|56=SIMPLE|10=206|
20181014-21:23:11.446 : 8=FIX.4.2|9=60|35=0|34=5|49=SIMPLE|52=20181014-21:23:11.445|56=MJV_CLIENT1|10=210|
20181014-21:23:11.446 : 8=FIX.4.2|9=60|35=0|34=5|49=MJV_CLIENT1|52=20181014-21:23:11.445|56=SIMPLE|10=210|
20181014-21:23:41.458 : 8=FIX.4.2|9=60|35=0|34=6|49=SIMPLE|52=20181014-21:23:41.457|56=MJV_CLIENT1|10=217|
20181014-21:23:41.554 : 8=FIX.4.2|9=60|35=0|34=6|49=MJV_CLIENT1|52=20181014-21:23:41.552|56=SIMPLE|10=213|
20181014-21:24:11.568 : 8=FIX.4.2|9=60|35=0|34=7|49=SIMPLE|52=20181014-21:24:11.566|56=MJV_CLIENT1|10=217|
20181014-21:24:11.573 : 8=FIX.4.2|9=60|35=0|34=7|49=MJV_CLIENT1|52=20181014-21:24:11.573|56=SIMPLE|10=215|
20181014-21:24:41.585 : 8=FIX.4.2|9=60|35=0|34=8|49=SIMPLE|52=20181014-21:24:41.585|56=MJV_CLIENT1|10=222|
20181014-21:24:41.586 : 8=FIX.4.2|9=60|35=0|34=8|49=MJV_CLIENT1|52=20181014-21:24:41.586|56=SIMPLE|10=223|
20181014-21:25:11.597 : 8=FIX.4.2|9=60|35=0|34=9|49=SIMPLE|52=20181014-21:25:11.596|56=MJV_CLIENT1|10=223|
20181014-21:25:11.603 : 8=FIX.4.2|9=60|35=0|34=9|49=MJV_CLIENT1|52=20181014-21:25:11.602|56=SIMPLE|10=211|
20181014-21:25:41.612 : 8=FIX.4.2|9=61|35=0|34=10|49=SIMPLE|52=20181014-21:25:41.611|56=MJV_CLIENT1|10=255|
20181014-21:25:41.613 : 8=FIX.4.2|9=61|35=0|34=10|49=MJV_CLIENT1|52=20181014-21:25:41.612|56=SIMPLE|10=000|
20181014-21:26:11.624 : 8=FIX.4.2|9=61|35=0|34=11|49=SIMPLE|52=20181014-21:26:11.623|56=MJV_CLIENT1|10=001|
20181014-21:26:11.625 : 8=FIX.4.2|9=61|35=0|34=11|49=MJV_CLIENT1|52=20181014-21:26:11.625|56=SIMPLE|10=003|
20181014-21:26:41.638 : 8=FIX.4.2|9=61|35=0|34=12|49=SIMPLE|52=20181014-21:26:41.637|56=MJV_CLIENT1|10=010|
20181014-21:26:41.644 : 8=FIX.4.2|9=61|35=0|34=12|49=MJV_CLIENT1|52=20181014-21:26:41.643|56=SIMPLE|10=007|
20181014-21:27:11.656 : 8=FIX.4.2|9=61|35=0|34=13|49=SIMPLE|52=20181014-21:27:11.655|56=MJV_CLIENT1|10=009|
20181014-21:27:11.658 : 8=FIX.4.2|9=61|35=0|34=13|49=MJV_CLIENT1|52=20181014-21:27:11.657|56=SIMPLE|10=011|
20181014-21:27:41.667 : 8=FIX.4.2|9=61|35=0|34=14|49=SIMPLE|52=20181014-21:27:41.666|56=MJV_CLIENT1|10=015|
20181014-21:27:41.673 : 8=FIX.4.2|9=61|35=0|34=14|49=MJV_CLIENT1|52=20181014-21:27:41.670|56=SIMPLE|10=010|
20181014-21:45:15.869 : 8=FIX.4.2|9=78|35=A|34=1|49=MJV_CLIENT1|52=20181014-21:45:15.835|56=SIMPLE|98=0|108=30|141=Y|10=057|
20181014-21:45:15.875 : 8=FIX.4.2|9=72|35=A|34=1|49=SIMPLE|52=20181014-21:45:15.874|56=MJV_CLIENT1|98=0|108=30|10=009|
20181014-21:45:45.911 : 8=FIX.4.2|9=60|35=0|34=2|49=SIMPLE|52=20181014-21:45:45.910|56=MJV_CLIENT1|10=215|
20181014-21:45:45.918 : 8=FIX.4.2|9=60|35=0|34=2|49=MJV_CLIENT1|52=20181014-21:45:45.917|56=SIMPLE|10=222|
20181014-21:46:15.931 : 8=FIX.4.2|9=60|35=0|34=3|49=SIMPLE|52=20181014-21:46:15.930|56=MJV_CLIENT1|10=216|
20181014-21:46:20.522 : 8=FIX.4.2|9=60|35=0|34=3|49=MJV_CLIENT1|52=20181014-21:46:20.518|56=SIMPLE|10=214|
20181014-21:46:42.856 : 8=FIX.4.2|9=70|35=0|34=4|49=MJV_CLIENT1|52=20181014-21:46:37.681|56=SIMPLE|58=Cersei|10=231|
20181014-21:46:42.869 : 8=FIX.4.2|9=125|35=3|34=4|49=SIMPLE|52=20181014-21:46:42.869|56=MJV_CLIENT1|45=4|58=Tag not defined for this message type|371=58|372=0|373=2|10=158|
20181014-21:46:56.877 : 8=FIX.4.2|9=69|35=1|34=5|49=SIMPLE|52=20181014-21:46:56.876|56=MJV_CLIENT1|112=TEST|10=004|
20181014-21:46:56.886 : 8=FIX.4.2|9=69|35=0|34=5|49=MJV_CLIENT1|52=20181014-21:46:56.886|56=SIMPLE|112=TEST|10=004|
20181014-21:47:26.900 : 8=FIX.4.2|9=60|35=0|34=6|49=SIMPLE|52=20181014-21:47:26.897|56=MJV_CLIENT1|10=234|
20181014-21:47:26.900 : 8=FIX.4.2|9=60|35=0|34=6|49=MJV_CLIENT1|52=20181014-21:47:26.898|56=SIMPLE|10=235|
20181014-21:47:56.911 : 8=FIX.4.2|9=60|35=0|34=7|49=SIMPLE|52=20181014-21:47:56.910|56=MJV_CLIENT1|10=224|
20181014-21:47:56.919 : 8=FIX.4.2|9=60|35=0|34=7|49=MJV_CLIENT1|52=20181014-21:47:56.912|56=SIMPLE|10=226|
20181014-21:48:17.590 : 8=FIX.4.2|9=60|35=5|34=8|49=MJV_CLIENT1|52=20181014-21:48:17.590|56=SIMPLE|10=232|
20181014-21:48:17.591 : 8=FIX.4.2|9=60|35=5|34=8|49=SIMPLE|52=20181014-21:48:17.591|56=MJV_CLIENT1|10=233|
20181014-21:52:04.509 : 8=FIX.4.2|9=78|35=A|34=1|49=MJV_CLIENT1|52=20181014-21:52:04.477|56=SIMPLE|98=0|108=30|141=Y|10=055|
20181014-21:52:04.515 : 8=FIX.4.2|9=72|35=A|34=1|49=SIMPLE|52=20181014-21:52:04.514|56=MJV_CLIENT1|98=0|108=30|10=252|
20181014-21:52:34.527 : 8=FIX.4.2|9=60|35=0|34=2|49=SIMPLE|52=20181014-21:52:34.526|56=MJV_CLIENT1|10=214|
20181014-21:52:34.537 : 8=FIX.4.2|9=60|35=0|34=2|49=MJV_CLIENT1|52=20181014-21:52:34.536|56=SIMPLE|10=215|
20181014-21:53:00.988 : 8=FIX.4.2|9=81|35=1|34=3|49=MJV_CLIENT1|52=20181014-21:53:00.987|56=SIMPLE|58=Cersei|112=Cersei|10=019|
20181014-21:53:00.989 : 8=FIX.4.2|9=125|35=3|34=3|49=SIMPLE|52=20181014-21:53:00.988|56=MJV_CLIENT1|45=3|58=Tag not defined for this message type|371=58|372=1|373=2|10=151|
20181014-21:53:10.992 : 8=FIX.4.2|9=69|35=1|34=4|49=SIMPLE|52=20181014-21:53:10.991|56=MJV_CLIENT1|112=TEST|10=245|
20181014-21:53:10.993 : 8=FIX.4.2|9=69|35=0|34=4|49=MJV_CLIENT1|52=20181014-21:53:10.993|56=SIMPLE|112=TEST|10=246|
20181014-21:54:11.764 : 8=FIX.4.2|9=78|35=A|34=1|49=MJV_CLIENT1|52=20181014-21:54:11.737|56=SIMPLE|98=0|108=30|141=Y|10=054|
20181014-21:54:11.771 : 8=FIX.4.2|9=72|35=A|34=1|49=SIMPLE|52=20181014-21:54:11.770|56=MJV_CLIENT1|98=0|108=30|10=000|
20181014-21:54:30.995 : 8=FIX.4.2|9=71|35=1|34=2|49=MJV_CLIENT1|52=20181014-21:54:30.995|56=SIMPLE|112=Cersei|10=014|
20181014-21:54:30.997 : 8=FIX.4.2|9=71|35=0|34=2|49=SIMPLE|52=20181014-21:54:30.997|56=MJV_CLIENT1|112=Cersei|10=015|
