8=FIX.4.2|9=78|35=A|34=1|49=MJV_CLIENT1|52=20181014-21:54:11.737|56=SIMPLE|98=0|108=30|141=Y|10=054|8=FIX.4.2|9=71|35=1|34=2|49=MJV_CLIENT1|52=20181014-21:54:30.995|56=SIMPLE|112=Cersei|10=014|